:02000000CD2B06
:1000060083120313A8011808F100F10CF113711CF7
:1000160011280130A800EF30980518161808F100CD
:10002600F10CF113F10CF113711C1B280230A8001E
:060036002808F00008009C
:10003C00C728831203132A08013A031D3328290801
:10004C00F1000130F000710803193028F00D701028
:10005C00FF3E2A287008850441282908F100013048
:10006C00F000710803193E28F00D7010FF3E38287F
:10007C00F00970088505DE282A08013A031D54286A
:10008C002908F1000130F000710803195128F00D16
:10009C007010FF3E4B287008860462282908F10076
:1000AC000130F000710803195F28F00D7010FF3E4D
:1000BC005928F00970088605DE282A08013A031D24
:1000CC0075282908F1000130F00071080319722815
:1000DC00F00D7010FF3E6C287008870483282908E7
:1000EC00F1000130F000710803198028F00D701038
:1000FC00FF3E7A28F00970088705DE282A08013AA5
:10010C00031D96282908F1000130F000710803192D
:10011C009328F00D7010FF3E8D2870088804A428D9
:10012C002908F1000130F00071080319A128F00D25
:10013C007010FF3E9B28F00970088805DE282A08FD
:10014C00013A031DB7282908F1000130F0007108AD
:10015C000319B428F00D7010FF3EAE287008890406
:10016C00C5282908F1000130F00071080319C228D4
:10017C00F00D7010FF3EBC28F00970088905DE28D0
:10018C00DE28831203132808003A03191F282808B5
:10019C00013A031942282808023A0319632828084F
:1001AC00033A031984282808043A0319A528C628F9
:0201BC00080039
:1001BE00831203131F08F000F00CF013F00CF01371
:1001CE0001307005F10071080130031D0030F000A0
:0201DE00080017
:0E01E000831603131E08F000FF30F005080020
:1001EE000730831203132805F2007208A800C730E7
:1001FE009F057208F000F00D7010F00D7010F00DEC
:08020E00701070089F04080045
:1002160083120313AA0156292908F0000508AA002B
:10022600700803191A29AA0CAA13FF3E14290130D3
:10023600AA056B292908F0000608AA007008031908
:100246002829AA0CAA13FF3E22290130AA056B29E8
:100256002908F0000708AA00700803193629AA0C15
:10026600AA13FF3E30290130AA056B292908F000A0
:100276000808AA00700803194429AA0CAA13FF3E0D
:100286003E290130AA056B292908F0000908AA00B1
:10029600700803195229AA0CAA13FF3E4C290130F3
:1002A600AA056B296B292808003A03190F29280883
:1002B600013A03191D292808023A03192B2928088F
:1002C600033A031939292808043A031947295529F5
:0602D6002A08F0000800F8
:1002DC002A2A831203132A08003A031D85292908A8
:1002EC00F1000130F000710803198029F00D701035
:1002FC00FF3E7A29F009700883168505942983122C
:10030C002908F1000130F000710803199129F00D52
:10031C007010FF3E8B29700883168504412A8312C6
:10032C002A08003A031DAA292908F1000130F0001F
:10033C0071080319A529F00D7010FF3E9F29F009D3
:10034C00700883168605B92983122908F10001303B
:10035C00F00071080319B629F00D7010FF3EB0299A
:10036C00700883168604412A83122A08003A031D5A
:10037C00CF292908F1000130F00071080319CA29AE
:10038C00F00D7010FF3EC429F00970088316870524
:10039C00DE2983122908F1000130F00071080319DD
:1003AC00DB29F00D7010FF3ED529700883168704E9
:1003BC00412A83122A08003A031DF4292908F10066
:1003CC000130F00071080319EF29F00D7010FF3E99
:1003DC00E929F009700883168805032A8312290875
:1003EC00F1000130F00071080319002AF00D7010B3
:1003FC00FF3EFA29700883168804412A83122A08C2
:10040C00003A031D192A2908F1000130F000710887
:10041C000319142AF00D7010FF3E0E2AF009700813
:10042C0083168905282A83122908F1000130F0006F
:10043C0071080319252AF00D7010FF3E1F2A700851
:10044C0083168904412A412A831203132808003A8F
:10045C0003196F292808013A031995292808023A2B
:10046C000319BA292808033A0319DF292808043A82
:08047C000319042A292A0800D3
:08048400831203131F15080089
:10048C00831203132608A8002708A9000130AA002C
:04049C006E210800C5
:1004A000831203130C08F100F10CF113F10CF1139A
:1004B000F10CF113F10CF11371185F2A502A260880
:0404C0009900080097
:0E04C4008312031325088A0024088200080012
:1004D200831203132608A8002708A900AA011E20D8
:0204E200080010
:1004E40083120313A601FE309F0580302604F0001A
:1004F4007008A6000E30F0047008A6007008831679
:100504009F00803083129F001F141A30FD00FD0BE2
:06051400892A0000080026
:10051A00831203132608A8002708A9000130AA009D
:04052A001E20080087
:10052E00831203132608A800F7201A30FD00FD0BD6
:10053E009E2A00004222DF207008031DA72AA22A4D
:04054E00F020080091
:10055200831203132608A8002708A9000B2108000C
:10056200831203132608A8002708A900AA016E21F6
:0205720008007F
:10057400BF3083160313870587177F3083129805CE
:100584006730831699009801EF3098051815BF302D
:100594009805981683129801BF3098051816981775
:1005A40003203430FC00F130FD00FD0BD72AFC0B96
:0805B400D72A00000000080036
:1005BC00013083120313A6000130A700A922700892
:1005CC00A0000130A6000230A700A9227008A100EB
:1005DC000330A6000430A700A9227008A200A601CF
:0A05EC00972270088312A300080094
:1005F60083120313A6015022FF302305A6005022C2
:020606000800EA
:10060800831203132008013A031D1D2B0330A60093
:100618000330A7008D220330A800A9010130AA00E9
:100628001E200330A8000130A9000130AA001E20B6
:10063800482B2108013A0319262B2208013A0319ED
:10064800262B382B0330A6000330A700692203307D
:10065800A800A9010130AA001E200330A80001301B
:10066800A900AA011E20482B0330A6000330A700CA
:1006780069220330A800A901AA011E200330A8009E
:100688000130A900AA011E20CD3023020318542BE3
:100698000330A8000230A9000130AA001E205A2BFE
:0E06A8000330A8000230A900AA011E2008009D
:1006B60062228A110A128000840AA40A0319A50A72
:0806C600F003031D5B2B08008B
:1006CE00013083120313A6000130A7004622013029
:1006DE0083120313A6000230A700462203308312B2
:1006EE000313A6000430A700462283120313A801A9
:1006FE00A9010130AA006E21033083120313A80052
:10070E00A901AA016E21033083120313A800013040
:10071E00A900AA016E21033083120313A800023030
:10072E00A900AA016E21033083120313A600033021
:10073E00A700B122023083120313A8000630A900CD
:10074E00AA016E21023083120313A8000730A900FC
:10075E000130AA006E21033083120313A800A901F1
:10076E00AA011E200330A8000130A900AA011E20F4
:10077E000330A8000230A900AA011E200330A600F3
:0C078E000330A70069227222BA22080082
:10079A0083120313A001A101A201A3016723DE2290
:1007AA000423FB220B30FB002630FC005D30FD00E9
:1007BA00FD0BDD2BFC0BDD2BFB0BDD2B0000000002
:0407CA00D42BE62B1B
:02400E004A2F37
:00000001FF
